:020000040800F2
:10000000A008002049010008510100085301000820
:1000100055010008570100085901000800000000C0
:100020000000000000000000000000005B0100086C
:100030005D010008000000005F0100086101000888
:100040006301000863010008630100086301000800
:1000500063010008630100086301000863010008F0
:1000600063010008630100086301000863010008E0
:1000700063010008630100086301000863010008D0
:1000800063010008630100086301000863010008C0
:1000900063010008630100086301000863010008B0
:1000A00063010008630100086301000863010008A0
:1000B0006301000863010008630100086301000890
:1000C0006301000863010008630100086301000880
:1000D0006301000863010008630100086301000870
:1000E0006301000863010008630100086301000860
:1000F0006301000863010008630100086301000850
:10010000630100086301000863010008630100083F
:10011000630100086301000863010008630100082F
:10012000630100086301000863010008630100081F
:10013000DFF810D000F044FB00480047A72B000870
:10014000AFF30080A008002006488047064800471B
:10015000FEE7FEE7FEE7FEE7FEE7FEE7FEE7FEE777
:10016000FEE7FEE7D521000831010008D2B201E028
:1001700000F8012B491EFBD270470022F6E710B5AC
:1001800013460A4604461946FFF7F0FF204610BD05
:10019000421C10F8011B0029FBD1801A7047000097
:1001A00070B50F4D00B92868002412E00A4602E03D
:1001B0009E4203D0521C1378002BF9D1DAB22243AD
:1001C00005D02BB124B1002100F8011B04E0044646
:1001D000401C0678002EE9D12860204670BD000042
:1001E000140000202DE9FE4F804681EA0300C00F75
:1001F0000C46009021F0004123F00045B8EB0200CE
:10020000A94105D24046214690461C460B4602466F
:1002100023F00040104347D0270DC7F30A00C3F373
:100220000A510290401A019040286BDAC3F3130080
:1002300040F4801B0098924620B10023D2EB030AC1
:1002400063EB0B0B01985946C0F14002504600F099
:10025000C2F906460D4650465946019A00F0DAF9B1
:1002600010EB08006141002487EA115284EAE77329
:100270001A4340D0009A62B3019A012A4FEA07520A
:1002800015DC001B61EB02014FF0004202EA07524D
:10029000CDE90042001C41F5801132462B4600F0AA
:1002A00028FA03B0BDE8F08F40462146F9E7001B6D
:1002B00061EB0201001C41F5801300185B4120181E
:1002C000A2F5001747EB030140EAD570B6196D415E
:1002D00011E06D084FEA360645EAC0754FEA07524D
:1002E000001B61EB0201001C41F5801149084FEA37
:1002F00030000019514132462B4603B0BDE8F04FA3
:1003000000F0E8B90098012240000023D0EB02027F
:1003100063EBE073009821464FEAE074B8EB00000D
:1003200061EB0401E9E783F000435BE781F0004102
:1003300058E72DE9FE4F81EA030404F0004421F060
:10034000004100944FF0000B23F0004350EA0104F9
:100350005ED052EA03045BD0C3F30A54C1F30A55DA
:100360002C44A4F2F3340194A0FB0254C1F3130112
:1003700041F48011C3F3130343F4801301FB0244DF
:1003800000FB034E840A970A44EA815447EA8357E4
:10039000A4FB076802958D0A05FB07854FEA932C9D
:1003A00004FB0C542705029D4FEA065847EA16370E
:1003B000B5EB08056EEB070C870E920E47EA811726
:1003C00042EA8312A7FB0201B6EB0B0164EB0004C7
:1003D0002B0D43EA0C335E1844EB1C50DA465146B1
:1003E000E7FB0201C5F313044FEA0B3343EA14534E
:1003F0004FEA0432019C43EA0603A4F10C04029480
:10040000009CCDE900B400F074F903B0BDE8F08FB2
:1004100000200146F9E72DE9F04D81EA030404F0DC
:10042000004B21F0004514464FF0000A23F0004134
:1004300050EA050220D054EA01021DD0C5F30A5744
:100440000246C5F31303C1F31300C1F30A5640F487
:10045000801543F48013A7EB0608101BD64608F25C
:10046000FD3873EB050002D308F1010801E0921892
:100470005B41B8F1000F03DA00200146BDE8F08DC2
:1004800000204FF48011064684460EE0171B73EBE4
:10049000050705D3121B63EB050306434CEA010C69
:1004A00049084FEA300092185B4150EA0107EDD14C
:1004B00052EA030012D082EA040083EA05010843ED
:1004C00005D0101BAB4106D20122002306E000221A
:1004D0004FF0004302E06FF0010253101AEB0600E8
:1004E0004CEB085110EB0A0041EB0B01BDE8F04D5D
:1004F00000F0F0B80EB5C10F80EAE0700844CA07FA
:10050000002140F233438DE80E000A460B4600F00E
:10051000F0F803B000BD000030B5041E71F1000416
:1005200004DB4FF00044404264EB0101141E73F100
:10053000000405DB1C464FF00043524263EB04030A
:10054000994208BF904230BD30B50B4601460020AD
:100550002022012409E021FA02F59D4205D303FA85
:1005600002F5491B04FA02F52844151EA2F1010206
:10057000F1DC30BD2DE9F05F0546002092469B4638
:1005800088460646814640241BE0284641464746A9
:10059000224600F02FF853465A46C01A914110D314
:1005A00011461846224600F016F82D1A67EB01088E
:1005B0004F4622460120002100F00DF817EB0009FC
:1005C0004E41201EA4F10104DFDC484631462A4694
:1005D0004346BDE8F09F202A04DB203A00FA02F1EE
:1005E000002070479140C2F1200320FA03F3194321
:1005F00090407047202A04DB203A21FA02F00021C3
:10060000704721FA02F3D040C2F120029140084322
:1006100019467047202A06DBCB17203A41FA02F030
:1006200043EAE07306E041FA02F3D040C2F120024F
:1006300091400843194670470FB4002300B589B0B4
:100640000CA900910B996FF00042CB601E4B0693F2
:100650001E4B07930423CDE901321D4A089202463E
:100660006B46002000F058F909B05DF814FB70B536
:1006700086B006464FF0FF300091CDE90101002021
:1006800015460C4604903246694604A8FFF7D4FF8D
:1006900002460498211825B108B1084600E020461A
:1006A0002860049800280DD0002A02DD00988842B6
:1006B00008D0081B0094CDE901043246694604A81D
:1006C000FFF7BAFF06B070BD510B00086F0B0008B2
:1006D000E507000810B5141E73F1000408DA401C89
:1006E00041F1000192185B411A4301D120F0010051
:1006F00010BD2DE9F04D92469B4611B1B1FA81F241
:1007000002E0B0FA80F220329046FFF764FF044620
:100710000F4640EA0A0041EA0B0153465A46084395
:1007200013D0114653EA010019D0C8F140025046D7
:10073000FFF760FF05460E46504659464246FFF712
:100740004AFF084305D0012004E020463946BDE8B1
:10075000F08D0020054346EAE0762C4337430A98A3
:100760006305E40AA0EB08000022FD0A44EA4754AE
:100770000A3002D500200146E9E701051019694158
:10078000DDE9084500196941BDE8F04DA2E7C1F374
:100790000A52C1F3130140F2FF3341F480119A422F
:1007A00002DA00200146704740F233439A42A2F237
:1007B000334202DC5242FFF71DBFFFF70CBF0000BF
:1007C000064C074D06E0E06840F0010394E807009E
:1007D00098471034AC42F6D3FFF7AEFCC0C0030814
:1007E000E0C00308C0B24FF4F05100F0D1B90000EE
:1007F0002DE9FF4F087883B09946FF2805D0491CA2
:100800002D2804D00024002008E000200BE0012463
:10081000F9E700EB800003EB4000491C0B78FF2B4D
:10082000F7D104B1404200230293147819461D46C3
:100830002D2C01D02B2C04D1521C2D2C13D0002494
:100840000294AA461478FF2C0FD00A25A3FB057842
:1008500001FB05814FF0000C03FB0C11521CE31946
:100860004AEB0101EEE70124EAE7814453EA010083
:1008700002D019F5C87F06DA03980021C0E90011FB
:1008800007B0BDE8F08F0025AE4E2F46DFF8B882E6
:10089000184600F091F9CDE90001B9F1000002DA43
:1008A000C9F1000400E004460023A74A1AEB030B39
:1008B00042EB045A12E0E00707D02A463346384696
:1008C0004146FFF736FD074688462A46334610461E
:1008D0001946FFF72EFD05460E466410002CEAD19E
:1008E000DDE90001B9F1000F5A46534606DAFFF779
:1008F00092FD3A464346FFF78EFD05E0FFF719FDEE
:100900003A464346FFF715FD029A0AB181F00041CD
:10091000039AC2E90001B3E72DE9FF4F1F468DB0EE
:10092000D7E901464FF0FF382E2045464FF0000929
:100930000B90B9696D1C0E988847396A82468847C2
:100940000028F6D1BAF1FF3F0AD024F4D064002E7B
:1009500011DDBAF12B0F08D0BAF12D0F0BD102E047
:10096000404611B08DE744F48064B9696D1C0E985F
:1009700088478246761E6946600501D52D2000E035
:100980002B208DF8000001F1010B0DF1200809E08A
:10099000B9696D1C0E98884782460F9844F400741C
:1009A000761E0560002E02DDBAF1300FF0D00B99F3
:1009B0008A453ED144F0800406E00F99681CA9F1F5
:1009C000010944F400740860B9696D1C761E0E9824
:1009D000884782463028F0D02BE00B998A4505D114
:1009E000200603D444F08004761E18E0504601F03F
:1009F00037FD08B30DF11301761E44F400748B45E6
:100A000008D2AAF130000BF8010B200607D5A9F196
:100A1000010003E0200602D409F101008146A0058F
:100A200002D50F99681C0860B9696D1C0E9888473B
:100A30008246002ED1DC53E0002E51DDBAF1650F65
:100A400002D0BAF1450F4BD1A00549D5B9696D1C4B
:100A500024F44074761E0E9888478246002E0CDDE2
:100A60002B2804D0BAF12D0F07D144F48074B96952
:100A70006D1C0E9888478246761EE00501D52D2113
:100A800000E02B2108F8011BCDF82C8021E00DF1AE
:100A90002901761E44F4007488450CD2AAF1300076
:100AA00010F0FF0088F8000002D10B99884509D9A1
:100AB00008F1010806E0E00501D5244801E042F212
:100AC0000F708146B9696D1C0E98884782460F9851
:100AD0000560002E04DD504601F0C2FC0028D6D18E
:100AE000F9690E988847FF208BF8000088F800000D
:100AF0000020069007904B466A4608A906A8FFF713
:100B000077FEA00502D46FF001002AE714F0240F4D
:100B10000AD0E00714D1DDE906123868031D3B60F6
:100B20000068C0E900120BE0DDE9060100F050F8B2
:100B30000146E00704D13868021D3A600068016090
:100B400028460EE7000014400000F03FF1D8FFFFF8
:100B5000426842B1016811F8013B23B1521EC0E95D
:100B60000012184670470121C160881E7047426814
:100B70005AB1C368016843B983688B4205D0491EE6
:100B8000521CC0E90012002070474FF0FF30704740
:100B90007F2801D9002208E0064A02EB5002C00774
:100BA000127800D1120902F00F0201209040084093
:100BB0007047000088BE03080EB540F2334202922F
:100BC0000022CDE900221346FFF793FD03B000BDDC
:100BD00001F0004330B421F0004150EA010206D098
:100BE0000A0DA2F56072C1F31301002A02DC30BCC9
:100BF00000207047440F44EAC104C100E01830BC33
:100C000000EBC250AFF300800029A8BF7047401C22
:100C1000490008BF20F00100704710B4B0FA80FC12
:100C200000FA0CF050EA010404BF10BC704749B14F
:100C3000CCF1200421FA04F411FA0CF118BF0121BF
:100C400021430843A3EB0C01CB1D4FEA00614FEA9F
:100C5000102042BF002010BC704700EBC35010446E
:100C60000029A4BF10BC7047401C490008BF20F0F9
:100C7000010010BC70477CB505460C4616464FF681
:100C8000FF704FF47841CDE9001004F15F0081B2AC
:100C900018233246284601F05BF97CBD38B54FF683
:100CA000FF7000F076FF1021282000F098FF00244C
:100CB0000DE04FF6FF7021017031009088B24FF4C3
:100CC000FC6322464F2100F02FFF601C84B2062CEB
:100CD000EFDB38BD10B540F281134FF4A0725F21F5
:100CE000002001F07AF84FF6FF714EF24010C0F28A
:100CF000010000F065FF10BD10B500F01CFD10BD37
:100D000010B500F0BFFE10BD2DE9F04F89B000F026
:100D1000DAFE8046FFF7EEFBCDE9060100224FF434
:100D20008043C4F28F03DDE90601FFF774FB04463C
:100D30000D4622462B4620462946FFF7FAFA06467C
:100D40000F4622462B464FF033304CF63331C4F277
:100D50007A01FFF7EEFA32463B46CDE9040145F24F
:100D6000EC10C1F6B8604FF68531C4F25F01FFF7B1
:100D7000E0FA82468B4632463B4640F63D20CAF2B8
:100D8000D7304AF67051C4F25001FFF7D2FA8046CC
:100D900022462B46FFF7CDFA52465B46CDE90001CD
:100DA000FFF7C1FACDE90201DDE90423FFF71AFAE2
:100DB00009B0BDE8F08F10B501F008F900F0D3FDDF
:100DC00000F001F810BD2DE9FF41012240F21001B1
:100DD000C2F20001002000F0F2FD40F21000C2F269
:100DE0000000007800287ADD40F21000C2F2000016
:100DF0000078FF2873DA40F21000C2F20000027897
:100E000040F21C01C2F20001012000F0D8FD4BF6B7
:100E10004871C0F6030140F21C00C2F20000FFF767
:100E2000BFF9064633461A224BF64C71C0F6030151
:100E30004BF66470C0F6030001F002FA4BF64871FD
:100E4000C0F603010020FFF7ABF9064633461D222A
:100E50004BF64C71C0F603014BF66470C0F603000C
:100E600001F0EEF94BF64871C0F6030140F21C00A8
:100E7000C2F20000FFF794F90646002101F0F6FEE9
:100E800040F20002C2F2000203C24BF64871C0F603
:100E900003010020FFF784F90646002101F0E6FE79
:100EA00040F20802C2F2000203C2A2F1080003C825
:100EB000CDE9020140F20000C2F2000003C8222284
:100EC000CDE900014BF64C71C0F603014BF6707092
:100ED000C0F6030001F0B4F9BDE8FF81FFE74BF66F
:100EE0008C72C0F6030200210846FFF7C4FE012001
:100EF00000F019F9FFF7EEFE4BF69C72C0F6030204
:100F000000210846FFF7B7FE00BF00F098F900285F
:100F1000FBD001F05FF80446FFF7DCFE4BF6D87219
:100F2000C0F6030200210846FFF7A5FE00BF00F04F
:100F300086F90028FBD001F04DF805462046FFF762
:100F4000D9FA40F20802C2F2000203C2281BFFF7DE
:100F5000D1FA064600220023C4F22403FFF75BFA0D
:100F600040F20002C2F2000203C2FFF7B3FE4CF2ED
:100F70002002C0F6030200210846FFF77CFE40F283
:100F80000800C2F2000003C8CDE9020140F20001EE
:100F9000C2F2000103C94C22CDE900014BF64C71AD
:100FA000C0F603014BF67070C0F6030001F048F97B
:100FB00040F20801C2F2000103C9CDE9020140F28A
:100FC0000000C2F2000003C84CF23402C0F6030273
:100FD000CDE90001802140F21C00C2F2000001F0C6
:100FE0003FF9002040F21C01C2F2000181F87F00AD
:100FF0000846FFF7CDF840F21001C2F20001087078
:10100000002000F001FD55224BF64C71C0F60301A3
:101010004CF24000C0F6030001F012F9012240F248
:101020001001C2F20001002000F0A1FC57224BF693
:101030004C71C0F603014CF25C00C0F6030001F0F5
:10104000FFF858224BF64C71C0F603014CF27800C1
:10105000C0F6030001F0F4F840F21000C2F2000004
:101060000278521C40F21C01C2F20001012000F083
:101070007EFC5A224BF64C71C0F603014CF29400F0
:10108000C0F6030001F0DCF840F21C00C2F20000E0
:10109000009040F21000C2F2000003785B224BF691
:1010A0004C71C0F603014CF2B000C0F6030001F031
:1010B000C7F800BF10E72DE9F04100F0C0F80128A3
:1010C00004D1002000F0A0FCFFF77DFE00F082FFBD
:1010D00080464046FFF70EFA064640F20800C2F28C
:1010E00000000CC83046FFF71EF9044640F200002D
:1010F000C2F200000CC82046FFF78DF9BDE8F08170
:1011000010B500F0DEFB00F021FC10BD00B5034679
:1011100003E04FF47A7000F013F8181EA3F10101F8
:101120008BB2F6D100BD10B5044603E04FF47A70DF
:10113000FFF7ECFF201EA4F101018CB2F6D110BD27
:1011400000EBC001C9004FF0E02251610021916124
:101150001146096941F0040111611146096921F044
:10116000020111611146096941F00101116100BFDD
:101170004FF0E021096901F4803131B94FF0E021ED
:10118000096901F001010029F2D14FF0E02109695C
:1011900021F001014FF0E022116170474FF48050BF
:1011A000C4F20200806940F008004FF48051C4F29C
:1011B0000201886140F60440C4F20100006820F496
:1011C000402040F60441C4F201010860084600686E
:1011D00040F4403008600846006820F430000860A1
:1011E0000846006840F4800008604FF48050C4F264
:1011F0000200806940F080004FF48051C4F2020187
:10120000886141F60440C4F20100006820F0070044
:1012100041F60441C4F2010108600846006840F04C
:101220000800086041F60C40C4F20100006840F478
:10123000807041F60C41C4F201010860704710B59E
:1012400041F60840C4F20100006800F4807008B163
:10125000002010BD6420FFF759FF41F60840C4F29A
:101260000100006800F4807070B900BF41F60840CA
:10127000C4F20100006800F480700028F6D06420F9
:10128000FFF744FF0120E4E70020E2E74FF4B0401D
:10129000C4F20000008840F480604FF4B041C4F212
:1012A0000001088070474FF48050C4F2020080694A
:1012B00040F008004FF48051C4F2020188610846F2
:1012C000C06940F48000C86140F60440C4F20100E7
:1012D000006820F47F4040F60441C4F20101086038
:1012E0000846006840F47F4008604FF4B040C4F204
:1012F0000000008820F002004FF4B041C4F2000169
:101300000880081D008820F03F00091D088008465D
:10131000008840F02400088045F61C00C4F200005C
:10132000008820F4004045F61C01C4F2000108804A
:10133000084600886FF30B0008800846008840F0DC
:10134000B4000880081D008820F03F00091D0880B7
:101350000846008840F0250008804FF4B040C4F2F1
:101360000000008840F001004FF4B041C4F20001D9
:10137000088070474FF4B040C4F20000008820F4A9
:1013800080604FF4B041C4F20001088070474FF60E
:10139000FF7100E0491E45F61400C4F20000008809
:1013A00000F0400008B90029F4D131B145F6100031
:1013B000C4F200000088C0B270470020FCE708B506
:1013C00002464FF6FF7145F61000C4F2000002809D
:1013D00000E0491E45F61400C4F20000008800F049
:1013E000020008B90029F4D171B145F61400C4F225
:1013F00000000088009045F61800C4F20000008844
:10140000009000BF012008BD0020FCE702464FF617
:10141000FF7100E0491E45F61400C4F20000008888
:1014200000F0800008B90029F4D1A9B145F61000F8
:10143000C4F2000002804FF6FF7100E0491E45F63D
:101440001400C4F20000008800F0800008B90029F0
:10145000F4D109B1012070470020FCE74FF6FF717D
:101460004FF4B040C4F20000008840F480704FF4A4
:10147000B042C4F20002108000E0491E45F614009C
:10148000C4F20000008800F0010008B90029F4D17E
:1014900009B1012070470020FCE74FF4B040C4F2CE
:1014A0000000008840F400704FF4B041C4F2000125
:1014B000088070474FF4A050C4F20100006840F06B
:1014C00033004FF4A051C4F201010860081D006808
:1014D00040F23331C3F20031084341F20441C4F217
:1014E000010108604FF4C050C4F20100006840F0F0
:1014F00040504FF4C051C4F201010860081D00685B
:1015000040F03330091D08604FF4A050C4F20100D0
:10151000006840F088004FF4A051C4F20101086057
:101520000846006820F044000860081D006840F686
:101530008801C8F60001084341F20441C4F20101E8
:101540000860084600684FF6BB31CBF6FF31084013
:1015500041F20441C4F2010108604FF4C050C4F2EA
:101560000100006840F000404FF4C051C4F2010196
:1015700008600846006820F080400860081D006888
:1015800040F08830091D08600846006800F0BB3054
:1015900008604FF4A050C4F20100006840F44C1001
:1015A0004FF4A051C4F2010108600846006840F4FD
:1015B000080008600846006820F4880008604FF4BE
:1015C000C050C4F20100006840F033004FF4C05135
:1015D000C4F2010108600846006840F08800086015
:1015E0000846006820F0440008604FF40050C4F240
:1015F0000100006840F003004FF40051C4F2010103
:1016000008600846006840F0080008600846006866
:1016100020F0040008600846406840F4403048600C
:101620000846406840F4002048600846406820F4BE
:10163000802048604FF44060C4F20100006840F030
:1016400003004FF44061C4F20101086008460068DD
:1016500020F00C0008604FF40050C4F20100406814
:1016600040F040504FF40051C4F201014860084678
:10167000406820F040404860704700B54FF480500B
:10168000C4F20200806940F008004FF48051C4F2B7
:10169000020188610846806940F0200088610846A0
:1016A000806940F0400088610846806940F0800011
:1016B00088610846806940F4807088610846406906
:1016C00040F480704861FFF7F5FE4FF020408069DC
:1016D00040F001004FF0204188610846806920F009
:1016E000020088610846806920F00C008861084685
:1016F000806920F0300088610846806940F0100061
:1017000088610846806940F4805088610846C06955
:1017100020F0F000C8610846C06920F00F00C861E1
:101720000846C06920F47F40C8610846C06940F49B
:101730008E40C86100BD10B5FFF79FFF00F02DFB84
:1017400000F0E5F900F06DFA10BD4FF48050C4F2DE
:101750000200806940F004004FF48051C4F202019D
:1017600088610846806940F01000886108468069F9
:1017700040F4805088614FF40060C4F201000068BA
:1017800020F480004FF40061C4F2010108600846B3
:10179000006840F4300008600846006820F03060BF
:1017A00008600846006840F08060086008460068ED
:1017B00020F0804008600846006840F03040086033
:1017C0004FF48050C4F20100406820F470004FF4E0
:1017D0008051C4F2010148600846406840F440105E
:1017E00048600846C06840F40050C8604FF440505C
:1017F000C4F20100008820F003004FF44051C4F20D
:10180000010108800846008840F00400088008466E
:10181000008820F0280008800846008840F010006A
:1018200008800846008840F4407008800846008818
:1018300020F0800008800846008820F400600880BE
:101840000846008840F04000088070474FF4805000
:10185000C4F20100C06820F400504FF48051C4F27B
:101860000101C86070474FF48050C4F20100C068A5
:1018700040F400504FF48051C4F20101C860704739
:10188000014600BF4FF44050C4F20100008900F04F
:1018900002000028F6D04FF44050C4F201008181CC
:1018A00000BF4FF44050C4F20100008900F0010075
:1018B0000028F6D04FF44050C4F201008089C0B235
:1018C00070474FF48050C4F20200806940F48040B9
:1018D0004FF48051C4F2020188610846806940F0EB
:1018E0000400886140F60400C4F20100006820F49E
:1018F0007F6040F60401C4F20101086008460068F8
:1019000040F49660086040F2712043F60801C4F28A
:1019100001010880081D008820F48050091D0880FE
:101920000846008840F008000880704700BF4FF468
:101930006051C4F20101098801F080010029F6D04C
:1019400043F60401C4F201010880704743F60C001D
:10195000C4F20100008840F4005043F60C01C4F2C8
:1019600001010880704710B5FFF7EFFE10BD2DE9AB
:10197000F04104460E46174600F061F800F079F891
:10198000FFF764FF0220FFF77BFFC4F30740FFF778
:1019900077FFC4F30720FFF773FFE0B2FFF770FF94
:1019A000002504E0705DFFF76BFF681C85B2BD4247
:1019B000F8DBFFF758FF00F053F8BDE8F0812DE9A0
:1019C000F04104460E46174600F039F8FFF73EFF97
:1019D0000320FFF755FFC4F30740FFF751FFC4F39F
:1019E0000720FFF74DFFE0B2FFF74AFF002505E0B3
:1019F000FF20FFF745FF7055681C85B2BD42F7DB3D
:101A0000FFF731FFBDE8F08110B5044600F017F88C
:101A100000F02FF8FFF71AFF2020FFF731FFC4F383
:101A20000740FFF72DFFC4F30720FFF729FFE0B2BF
:101A3000FFF726FFFFF717FF00F012F810BD10B5F3
:101A4000FFF704FF0520FFF71BFF00BFFF20FFF794
:101A500017FF00F001000028F8D1FFF704FF10BDC8
:101A600010B5FFF7F3FE0420FFF70AFFFFF7FBFEB8
:101A700010BD10B5FFF7EAFE0620FFF701FFFFF7E4
:101A8000F2FE10BD10B5FFF70EFCFFF7E7FC90204B
:101A9000FFF795FC0120FFF7B9FC48F2835424F4CA
:101AA000E04444F4804424F4606444F4007424F476
:101AB000807400BF200AFFF7A9FCE0B2FFF7A6FC84
:101AC000FFF7EBFC10BD70B500240025FFF7C6FC46
:101AD0009020FFF774FC0020FFF798FCFFF7BEFC96
:101AE0009120FFF76CFCFFF7D1FBFFF750FC44EAB5
:101AF0000024FFF73FFCFFF74AFC0443FFF7CDFC4F
:101B000025B22903C81701EB5040C01370BD40F641
:101B10000C40C4F20100006840F0010040F60C41A6
:101B2000C4F20101086070472DE9F043074688467A
:101B300014461D46DDF81C90062C01D3BDE8F08349
:101B400010231A464146384600F047F92C2000F091
:101B500033FA002219E04BF6C850C0F6030000EB40
:101B60004410835C00260CE003F0010018B1284605
:101B700000F026FA02E0484600F022FA5B10701CE2
:101B8000C6B2082EF0DB501C82B2202AE3D300BF7D
:101B9000D4E710B504464FF4F0734FF4A07200215F
:101BA000084600F01AF92C2000F006FA002203E0A3
:101BB000204600F005FA521CB2F5163FF8D310BDCE
:101BC00010B502460B462C2000F0F6F9002403E085
:101BD000184600F0F5F9641C9442F9D310BD70B5B5
:101BE00004460D463E23F0222946204600F0F5F833
:101BF0002C2000F0E1F900220EE044F68810C0F637
:101C00000300815C0646501C305C01EB002083B26F
:101C1000184600F0D5F9921C47F240408242ECD3BE
:101C200070BD10B5E02000F0C7F9002000F0C8F941
:101C3000072000F0C5F9102000F0C2F9092000F0DB
:101C4000BFF9172000F0BCF90B2000F0B9F94120D2
:101C500000F0B6F9892000F0B3F94B2000F0B0F99C
:101C60000A2000F0ADF90C2000F0AAF90E2000F0D7
:101C7000A7F9182000F0A4F91B2000F0A1F90F200B
:101C800000F09EF9E12000F097F9002000F098F9AB
:101C9000172000F095F91A2000F092F9042000F0C6
:101CA0008FF90E2000F08CF9062000F089F92F2022
:101CB00000F086F9452000F083F9432000F080F918
:101CC000022000F07DF90A2000F07AF9092000F0E6
:101CD00077F9322000F074F9362000F071F90F2006
:101CE00000F06EF9C02000F067F9112000F068F9EB
:101CF000092000F065F9C12000F05EF9022000F033
:101D00005FF9032000F05CF9C52000F055F90020D0
:101D100000F056F90A2000F053F9802000F050F945
:101D2000B12000F049F9B02000F04AF9112000F08C
:101D300047F9B42000F040F9022000F041F9B62044
:101D400000F03AF90A2000F03BF9A22000F038F93F
:101D5000B72000F031F9C62000F032F9BE2000F0C3
:101D60002BF9002000F02CF9042000F029F93A208A
:101D700000F022F9552000F023F9112000F01CF9A1
:101D8000362000F019F9082000F01AF97820FFF742
:101D9000BDF9292000F010F910BD10B54FF4005026
:101DA000C4F20100C06820F400404FF40051C4F2B6
:101DB0000101C8606420FFF7A9F94FF40050C4F294
:101DC0000100C06840F400404FF40051C4F201012A
:101DD000C8606420FFF79AF910BD30B504460D467F
:101DE0002A2000F0E9F8201200F0EAF8E0B200F052
:101DF000E7F8A118491EC1F30F2000F0E1F8A1187F
:101E0000491EC8B200F0DCF82B2000F0D5F82812EB
:101E100000F0D6F8E8B200F0D3F8E918491EC1F393
:101E20000F2000F0CDF8E918491EC8B200F0C8F83C
:101E300030BD2DE9F04F0746884616461C46DDF8B2
:101E40002490A24604EBDA70C0F34F0223464146C9
:101E50003846FFF7C2FF2C2000F0AEF8A6F12000B4
:101E6000C5B2102C23D100221EE042F68840C0F6F5
:101E7000000000EB451030F812304FF0000A0EE081
:101E800003F0010018B1484600F09AF802E00A9801
:101E900000F096F85B100AF1010000F0FF0ABAF1B9
:101EA000080FEDDB501C82B2102ADEDB4EE0202C46
:101EB00021D100221CE043F66800C0F6000000EBD0
:101EC0008510835C4FF0000A0EE003F0010018B1AA
:101ED000484600F075F802E00A9800F071F85B08D7
:101EE0000AF1010000F0FF0ABAF1080FEDDB521C05
:101EF000402AE0D32AE0182C28D1002224E005EB68
:101F0000450045F22801C0F6000101EB0010835C9A
:101F100002F0010008B9082000E0042083464FF0D9
:101F2000000A0EE003F0010018B1484600F048F83E
:101F300002E00A9800F044F85B080AF101001FFA79
:101F400080FADA45EEDB521C302AD8D3BDE8F08F98
:101F50002DE9FC470746884615461C46DDE90A9AE6
:101F6000002624E0A85D0A2805D1002708EB04001C
:101F70001FFA80F819E004EBD47107EB6101B1F5A9
:101F8000A07F04DD002708EB04001FFA80F8CDE9EC
:101F9000009AAA5D234641463846FFF74AFF20468D
:101FA00004EBD07107EB61018FB2701C86B2A85DA3
:101FB0000028D7D1BDE8FC874FF0D8410880704792
:101FC0004FF40061C6F600410880704710B5FFF776
:101FD000E5F810BD70B5002440F60C40C4F20100D5
:101FE000006820F4805040F60C41C4F20101086002
:101FF0000A20FFF7A5F800BF40F60840C4F2010030
:10200000006800F400500028F6D1002527E040F6D3
:102010000C40C4F20100006840F4805040F60C41CE
:10202000C4F2010108600A20FFF78AF840F60C406C
:10203000C4F20100006820F4805040F60C41C4F264
:10204000010108606400081F006800F4005008B136
:1020500044F001040A20FFF773F8681CC5B2182D7C
:10206000D5DB40F60C40C4F20100006840F480501B
:1020700040F60C41C4F2010108600A20FFF760F845
:1020800040F60C40C4F20100006820F4805040F695
:102090000C41C4F2010108600A20FFF751F804F472
:1020A000000008B144F07F4484F4000070BD10B516
:1020B00000F001F810BD0CB50020019000904FF425
:1020C0008050C4F20200006840F480304FF4805128
:1020D000C4F20201086000BF4FF48050C4F2020055
:1020E000006800F4003000900198401C01900098B6
:1020F00018B90198B0F5A06FEED14FF48050C4F23A
:102100000200006800F4003010B10120009001E0EE
:1021100000200090009801285BD14FF40050C4F2D9
:102120000200006840F010004FF40051C4F20201B8
:1021300008600846006820F007000860084600684C
:1021400040F0020008604FF48050C4F20200406882
:102150004FF48051C4F2020148600846406848606C
:102160000846406840F4806048600846406820F4B3
:102170007C1048600846406840F4E8104860084613
:10218000006840F08070086000BF4FF48050C4F2D7
:102190000200006800F000700028F6D04FF4805074
:1021A000C4F20200406820F003004FF48051C4F2F2
:1021B000020148600846406840F00200486000BFE5
:1021C0004FF48050C4F20200406800F00C00082870
:1021D000F6D10CBD10B54FF48050C4F20200006877
:1021E00040F001004FF48051C4F20201086008463B
:1021F00040680021CFF6FF0108404FF48051C4F23F
:10220000020148600846006820F4102020F0807029
:1022100008600846006820F480200860084640688E
:1022200020F4FE0048604FF41F008860FFF73FFF76
:102230004FF000604EF60851CEF20001086010BD6C
:102240000FB4054B10B503A9044A029800F010F929
:1022500010BC5DF814FB0000972B0008180000204C
:102260000FB47CB50C0009AD01D0611E00E0002167
:10227000CDE90001064B6A462946089800F0F8F8B7
:10228000002C02D0009A002111707CBC5DF814FB78
:10229000772B00080FB4084B10B504A902AA0398C5
:1022A00000F0E6F8044602A9002000F06FFC20468A
:1022B00010BC5DF814FB00008D2B000802E008C87C
:1022C000121F08C1002AFAD170477047002001E0B0
:1022D00001C1121F002AFBD1704700002DE9FF5FEA
:1022E00082B00021DDE90430020DDDF840B0034387
:1022F00018D044F61050A2F2FF3242431514119840
:1023000001281FD0A5EB0B00401C5FEA000A4FF02C
:1023100000064E4FDFF83891B046504615D5CAF149
:10232000000413E0119801244AA3012801D16FEAA7
:102330000B010298119AC0E90031C0E9024206B0CF
:10234000BDE8F09FCBF10000DFE704460021404AE2
:10235000491842EB0450CDE9001012E0E00707D025
:1023600032463B4640464946FDF7E3FF80468946F4
:1023700032463B4610461946FDF7DBFF06460F4640
:102380006410002CEAD1DDE90401DDE90023BAF193
:10239000000F06DAFDF7CDFF42464B46FDF7C9FFB9
:1023A00005E0FEF738F842464B46FEF734F804469F
:1023B0000E460022284BFEF7AFF803D84FF0FF304F
:1023C000014607E00022254B20463146FDF70AFF73
:1023D000FEF7DDF9102409E0002C0ADB0A220023B5
:1023E000FEF7C8F8039B30321A55641E50EA01020A
:1023F000F2D1641C039AC4F111031444119A012A06
:1024000003D0012208430DD10AE0084304D0002084
:102410004FF0110B119072E7A3EB0B056D1E0DE051
:102420005B4504DD4FF0000205F1010504E003DA2D
:102430004FF00002A5F10105002AECD00298119995
:10244000C0E90231C0E9004579E70000000014400E
:102450000000F03F300000000000F0430000E03FCB
:1024600030380A2801D20120704700207047000050
:102470002DE9FF4F95B09A46884606460025EEE1C5
:10248000252877D100242746F94A0121039400E04A
:10249000044316F8013F203B01FA03F01042F7D144
:1024A00030782A2811D06FF02F033078A0F1300255
:1024B000092A16D8039A44F0020402EB820203EBC5
:1024C00042021044761C0390EFE758F8042B039265
:1024D000002A03DA504244F40054039044F002040A
:1024E000761C30782E2816D116F8010F44F004041B
:1024F0002A280DD06FF02F023078A0F13003092B7D
:1025000009D807EB870302EB4303C718761CF3E7F0
:1025100058F8047B761C30786C280FD006DC4C28E9
:1025200017D068280DD06A2814D104E0742810D080
:102530007A280FD10DE044F400140AE044F480142A
:1025400001E044F440147278824202D104F5801410
:10255000761C761C307866280BD013DC582877D090
:1025600009DC002875D04528F6D04628F4D0472845
:102570001AD193E118E0632835D0642879D0652812
:1025800012D18BE1702873D008DC6728F1D069285C
:102590006FD06E280DD06F2806D1ACE073282CD0F8
:1025A000752874D0782853D05246179990476D1CDF
:1025B00054E1C4F30250022809D003280DD0D8F802
:1025C000001004280DD00D6008F1040846E1D8F889
:1025D0000010EA17C1E90052F6E7D8F800100D80A4
:1025E000F2E70D70F0E718F8041B8DF800100020DA
:1025F0008DF80100EB46012003E058F804BB4FF0D2
:10260000FF3061074FF0000102D40DE009F1010134
:102610008946B9420FDA8145F8DB1BF80910002919
:10262000F4D108E009F1010189468142FADB1BF887
:1026300009100029F6D103985346A0EB090721465B
:102640003846179A00F080FA284400EB090507E0A5
:1026500044E008E10DE01BF8010B52461799904742
:10266000B9F10109F7D2534621463846179AF2E0EC
:1026700039E00A21C4F302524FF0000B0091022A04
:1026800006D058F8040BC117032A09D00AE023E04A
:1026900008F1070020F00702F2E80201904605E089
:1026A00000B2C117042A01D140B2C117002906DACD
:1026B0000A460021404261EB02012D2202E0220580
:1026C00004D52B228DF80420012203E0E20701D07B
:1026D0002022F7E7914657E00A2100E010214FF051
:1026E000000B00910BE010214FF0000B44F00404AC
:1026F0000827009103E008204FF0000B0090C4F37E
:102700000252022A05D058F8040B0021032A08D0EF
:1027100008E008F1070020F00702F2E80201904605
:1027200003E080B2042A00D1C0B24FF000092207B2
:102730002AD53278702A07D0DDF800C08CF0100C52
:102740005CEA0B0C05D00EE040228DF8042001223B
:1027500008E050EA010306D030238DF804308DF8EC
:10276000052002229146009B83F0080353EA0B03E5
:102770000AD150EA010201D1620705D530228DF855
:1027800004204FF001097F1E3278582A04D039A264
:102790000C920CAA02920BE03BA2F9E75B46009A6E
:1027A000FDF7E8FE0C9B9B5C029A521E029213708E
:1027B00050EA0102F2D1029804A9081A00F1200B94
:1027C000600702D524F4803400E001275F4502DD74
:1027D000A7EB0B0000E0002000EB0B01009003983A
:1027E0004944401A0390E00306D453462146179A01
:1027F000039800F0A9F90544002706E001A8524615
:10280000C05D179990476D1C7F1C4F45F6DBE003B8
:102810000CD553462146179A039800F095F90544C4
:1028200004E030205246179990476D1C0099481ECD
:1028300000900029F5DC08E00298029952460078E1
:10284000491C0291179990476D1CBBF10001ABF137
:10285000010BF1DC5BE100F065F90544761C307892
:1028600000287FF40DAE19B02846BDE8F08F0000B7
:102870000928010030313233343536373839616256
:10288000636465660000000030313233343536371A
:10289000383941424344454600000000600700D4F7
:1028A000062708F1070020F00700F0E80223804621
:1028B00003F0004C5FEA0C0001D097A009E020056E
:1028C00001D596A005E0E00701D095A001E0AFF2A8
:1028D0004C001390307823F0004365280CD006DCC0
:1028E000452809D046281DD047287FD13BE06628DF
:1028F00018D067287AD136E00021112F01DB112092
:1029000000E0781CCDE9000104A90CA8FFF7E6FC63
:10291000DDE90D010C9A4FF0000B07F1010910924F
:1029200000914EE04FF000400097CDE9011004A95E
:102930000CA8FFF7D3FCDDE90D020C9B0F994FF0BB
:10294000000B91461093009211B9791C00EB01091C
:10295000B7EB090003D4C0F1FF3B07F10109A9EB74
:102960000700019042E0012F00DA01270021112F1A
:1029700001DD112000E03846CDE9000104A90CA8D2
:10298000FFF7ACFCDDE90D010C9A00914FF0000B54
:10299000B946109221070FD4009A4A4503DA9146AE
:1029A00001E0A9F10109B9F1010F05DD109AA9F1C2
:1029B0000101515C3029F4D0B84202DA10F1040F61
:1029C00003DA0121CDE9011010E0002803DC834483
:1029D000A9EB000102E0411C494500DD8946A0EB5E
:1029E0000B00401C01904FF000400290200705D4DE
:1029F0000198484502DB4FF0FF30019000208DF830
:102A00004B0002980DF14B07B0F1004F25D002208A
:102A10000C902B200D90029800280CDA4042029076
:102A20002D200D9007E00A210298FDF78DFD303131
:102A3000029007F8011D0C99481E0C900029F2DC49
:102A400002980028EFD1791E0D980870307800F0B8
:102A5000200040F0450007F8020D11A8C01BC01D62
:102A600002901398007800B1012000EB0901019851
:102A700001EBE071029801440398401A401E039054
:102A8000E00306D453462146179A039800F05CF8F9
:102A900005441398007818B15246179990476D1C59
:102AA000E00323D553462146179A039800F04CF8CB
:102AB00005441BE0BBF1000F07DB0098584504DD1F
:102AC0001098179910F80B0001E017993020524622
:102AD000904701980BF1010B401E05F10105019093
:102AE00004D12E205246179990476D1CB9F1000170
:102AF000A9F10109DEDC05E017F8010B5246179930
:102B000090476D1C0299481E02900029F4DC534640
:102B10002146179A03989EE62D0000002B00000026
:102B2000200000002DE9F041044600251E4617460E
:102B3000880404D405E039462020B0476D1C641E8B
:102B4000F9D52846BDE8F0812DE9F041044600257D
:102B50001E469046C80301D5302700E02027880490
:102B600004D505E041463846B0476D1C641EF9D5D2
:102B70002846BDE8F0814A68002A06D00A68531C3E
:102B80000B6010704868401E486070470A68531C0C
:102B90000B601070704700B502460B46D0B2FEF7CE
:102BA000C5FE104600BD8CB0FEF7A6F8FEF776F81D
:102BB000FEF7A6FAFEF7A4F810224BF6C861C0F69D
:102BC00003014BF6D460C0F60300FFF739FB022087
:102BD000FEF79CFAFEF777FF8046434613224BF63A
:102BE000C861C0F603014BF6F060C0F60300FFF7C2
:102BF00027FBFEF7E0F800BF00BF30216846FDF775
:102C0000BCFA32E0FEF757FA06460F4632463B461C
:102C10004BF60071C0F603016846FFF73BFB6A46BE
:102C20006E210020FEF727F800220023C3F6E07390
:102C300030463946FDF770FC04D2FEF765F80446CD
:102C40000D4601E00024254622462B464BF628710E
:102C5000C0F603016846FFF71DFB6A469621002077
:102C6000FEF709F86420FEF751FACBE700B583B010
:102C70000A460021CDE9001101466846FDF7F7FC40
:102C8000DDE9000103B000BD00000000000000000D
:102C90000000000000000000000000000000000034
:102CA000000000000000000000000000000008001C
:102CB00008000800080008000800080000000000E4
:102CC0000800080000000000000048002400240064
:102CD00012000000000000000000000000000000E2
:102CE000000000000000000000000000000048009C
:102CF000480048007E002400240024007E002400B8
:102D000024002400000000000000000010003C002F
:102D10005200520012001C003000500050005200BF
:102D200052003C00100010000000000000002200D3
:102D30002500150015000D002A005800540054000D
:102D400052002200000000000000000000000C0003
:102D50001200120012000A00760025002900190056
:102D600091006E0000000000000006000400040056
:102D70000200000000000000000000000000000051
:102D800000000000000000000000400020001000D3
:102D900010000800080008000800080008001000E3
:102DA00010002000400000000000020004000800A5
:102DB00008001000100010001000100010000800A3
:102DC00008000400020000000000000000000000F5
:102DD000080008006B001C001C006B0008000800C5
:102DE00000000000000000000000000000000000E3
:102DF0000000100010001000FE0010001000100075
:102E000000000000000000000000000000000000C2
:102E100000000000000000000000000000000000B2
:102E20000600040004000200000000000000000092
:102E300000000000000000007E0000000000000014
:102E40000000000000000000000000000000000082
:102E50000000000000000000000000000000000072
:102E600006000600000000000000000040002000F6
:102E700020002000100010000800080008000400D6
:102E80000400020002000000000000000000180022
:102E90002400420042004200420042004200420040
:102EA00024001800000000000000000000001000D6
:102EB0001C00100010001000100010001000100086
:102EC00010007C00000000000000000000003C003A
:102ED00042004200420040002000100008000400B0
:102EE00042007E00000000000000000000003C00E6
:102EF0004200420040002000180020004000420034
:102F000042003C0000000000000000000000200023
:102F1000300030002800240024002200FE002000A1
:102F20002000F800000000000000000000007E000B
:102F30000200020002001E00220040004000420089
:102F400022001C000000000000000000000018002B
:102F50002400020002003A00460042004200420003
:102F600044003800000000000000000000007E0067
:102F70004200200020001000100008000800080097
:102F800008000800000000000000000000003C00F5
:102F90004200420042002400180024004200420087
:102FA00042003C00000000000000000000001C0087
:102FB000220042004200420062005C0040004000EB
:102FC00024001800000000000000000000000000C5
:102FD00000000000180018000000000000000000C1
:102FE00018001800000000000000000000000000B1
:102FF00000000000000008000000000000000000C9
:103000000000080008000800000000000000400068
:103010002000100008000400020004000800100056
:103020002000400000000000000000000000000040
:10303000000000007E00000000007E000000000094
:10304000000000000000000000000000000002007E
:1030500004000800100020004000200010000800BC
:1030600004000200000000000000000000003C001E
:103070004200420046002000100010001000000036
:1030800018001800000000000000000000001C00F4
:1030900022005A00550055005500550055003A00D1
:1030A00042003C000000000000000000000008009A
:1030B000080018001400140024003C002200420004
:1030C0004200E700000000000000000000001F00B8
:1030D0002200220022001E00220042004200420084
:1030E00022001F00000000000000000000007C0023
:1030F0004200420001000100010001000100420005
:1031000022001C00000000000000000000001F0062
:1031100022004200420042004200420042004200BF
:1031200022001F00000000000000000000003F001F
:103130004200120012001E001200120002004200A3
:1031400042003F00000000000000000000003F00BF
:103150004200120012001E001200120002000200C3
:1031600002000700000000000000000000003C001A
:103170002200220001000100010071002100220054
:1031800022001C0000000000000000000000E7001A
:1031900042004200420042007E00420042004200E3
:1031A0004200E700000000000000000000003E00B8
:1031B00008000800080008000800080008000800CF
:1031C00008003E00000000000000000000007C003D
:1031D000100010001000100010001000100010006F
:1031E0001000100011000F00000000000000770028
:1031F000220012000A000E000A0012001200220033
:10320000220077000000000000000000000007001E
:10321000020002000200020002000200020002009E
:1032200042007F0000000000000000000000770066
:10323000360036003600360036002A002A002A0002
:103240002A006B0000000000000000000000E30006
:10325000460046004A004A005200520052006200F6
:1032600062004700000000000000000000001C0099
:103270002200410041004100410041004100410065
:1032800022001C00000000000000000000003F00C1
:1032900042004200420042003E00020002000200E2
:1032A00002000700000000000000000000001C00F9
:1032B00022004100410041004100410041004D0019
:1032C00032001C00600000000000000000003F0011
:1032D0004200420042003E00120012002200220082
:1032E0004200C700000000000000000000007C0059
:1032F000420042000200040018002000400042008A
:1033000042003E00000000000000000000007F00BE
:10331000490008000800080008000800080008002C
:1033200008001C0000000000000000000000E70092
:10333000420042004200420042004200420042007D
:1033400042003C0000000000000000000000E70018
:10335000420042002200240024001400140018003F
:1033600008000800000000000000000000006B00E2
:103370002A002A002A002A002A003600140014001D
:103380001400140000000000000000000000E7002E
:103390004200240024001800180018002400240013
:1033A0004200E7000000000000000000000077007D
:1033B0002200220014001400080008000800080081
:1033C00008001C00000000000000000000007E005B
:1033D000210020001000100008000400040042003A
:1033E00042003F00000000000000780008000800D4
:1033F000080008000800080008000800080008008D
:10340000080008007800000000000000020004002E
:10341000040004000800080008001000100020004C
:10342000200020004000400000001E00100010009E
:10343000100010001000100010001000100010000C
:10344000100010001E000000000018002400000002
:10345000000000000000000000000000000000006C
:10346000000000000000000000000000000000005C
:10347000000000000000000000000000000000004C
:10348000000000000000FF0000000600080000002F
:10349000000000000000000000000000000000002C
:1034A000000000000000000000000000000000001C
:1034B0000000000000001C00220030002C00220050
:1034C00032006C000000000000000000000000005E
:1034D0000300020002001A002600420042004200DF
:1034E00026001A000000000000000000000000009C
:1034F000000000000000380044000200020002004A
:10350000440038000000000000000000000000003F
:103510006000400040007C00420042004200420047
:103520006200DC000000000000000000000000005D
:103530000000000000003C00420042007E0002004B
:1035400042003C00000000000000000000000000FD
:103550003000480008003E0008000800080008008D
:1035600008003E0000000000000000000000000015
:103570000000000000007C00220022001C0002006D
:103580003C00420042003C0000000000000000003F
:103590000300020002003A004600420042004200DE
:1035A0004200E700000000000000000000000C00E6
:1035B0000C00000000000E000800080008000800D1
:1035C00008003E0000000000000000000000300085
:1035D0003000000000003800200020002000200003
:1035E0002000200022001E0000000000000000005B
:1035F000030002000200720012000A000E00120016
:103600002200770000000000000000000000080019
:103610000E00080008000800080008000800080064
:1036200008003E0000000000000000000000000054
:103630000000000000007F009200920092009200C3
:103640009200B70000000000000000000000000031
:103650000000000000003B00460042004200420023
:103660004200E70000000000000000000000000031
:103670000000000000003C00420042004200420006
:1036800042003C00000000000000000000000000BC
:103690000000000000001B00260042004200420023
:1036A00026001A00020007000000000000000000D1
:1036B0000000000000005800640042004200420088
:1036C000640058004000E00000000000000000001E
:1036D00000000000000077004C000400040004001B
:1036E00004001F00000000000000000000000000B7
:1036F0000000000000007C00420002003C0040008E
:1037000042003E0000000000000000000000000039
:103710000000080008003E0008000800080008003B
:103720004800300000000000000000000000000021
:10373000000000000000630042004200420042001E
:103740006200DC000000000000000000000000003B
:103750000000000000007700220022001400140086
:103760000800080000000000000000000000000049
:10377000000000000000DB00910052005A002A0007
:1037800024002400000000000000000000000000F1
:103790000000000000006E0024001800180018004F
:1037A000240076000000000000000000000000007F
:1037B000000000000000E700420024002400180080
:1037C00018000800080006000000000000000000CB
:1037D0000000000000007E00220010000800080029
:1037E00044007E00000000000000C0002000200017
:1037F00020002000200020001000200020002000D9
:1038000020002000C0000000100010001000100078
:103810001000100010001000100010001000100028
:10382000100010001000100000000300040004004D
:103830000400040004000400080004000400040064
:10384000040004000300000004005A0020000000EF
:103850000000000000000000000000000000000068
:103860000000000000000000000000000000000058
:103870000000000000000000000000000000000048
:103880000000000000000000000000000000000038
:103890000000000000000000000000000000000028
:1038A0000000000000000000000000000000000018
:1038B0000000C001C001C001C001C001C001C001C1
:1038C0008000800080008000800080008000000078
:1038D0000000000000008001C003C0038001000060
:1038E0000000000000000000000000000000E01CDC
:1038F000E01CF01E700E3807180308018400000059
:1039000000000000000000000000000000000000B7
:1039100000000000000000000000000000000000A7
:103920000000000000000000000000000000000097
:103930000000000020102010201020102010FE7F1A
:10394000FE7F100810081008100810081008100852
:10395000FE7FFE7F08040804080408040804000031
:103960000000000000000000000000000000000057
:1039700000010001C00760191031183118391839D9
:1039800038017001E001C0038007000F001D0039FD
:1039900000311C311C310C310C11180DE0070001F5
:1039A0000001000100000000000000000000000015
:1039B000000000001C1036186308630C63046304E5
:1039C000630263026301361D9C378022806340637B
:1039D000406320632063306310221836081C000007
:1039E00000000000000000000000000000000000D7
:1039F00000000000F00098018C018C018C018C010A
:103A00008C00CC007800183E1C083608320863048D
:103A10006304C304C303834306438E26781C00005B
:103A200000000000000000000000000000001C007A
:103A30003C003C003000300010000C00060000008C
:103A40000000000000000000000000000000000076
:103A50000000000000000000000000000000000066
:103A60000000000000000000000000000000004016
:103A7000002000100008000C0004000600030003F2
:103A800000038001800180018001800180018001AC
:103A9000800100030003000300060006000C00087C
:103AA00000100020004000000000000000000200A4
:103AB000040008001000300020006000C000C000BA
:103AC000C0008001800180018001800180018001AF
:103AD0008001C000C000C000600060003000100025
:103AE00008000400020000000000000000000000C8
:103AF00000000000000000000001800380030001BE
:103B00001C713C79783DC0070001C007783D3C79C5
:103B10001C71000180038003800100000000000090
:103B20000000000000000000000000000000000095
:103B30000000000000000000000000010001000182
:103B40000001000100010001FC7F000100010001F3
:103B50000001000100010001000000000000000061
:103B60000000000000000000000000000000000055
:103B70000000000000000000000000000000000045
:103B80000000000000000000000000000000000035
:103B900000000000000000001C003C003C00300061
:103BA000300010000C0006000000000000000000C3
:103BB0000000000000000000000000000000000005
:103BC0000000000000000000FE7F00000000000078
:103BD00000000000000000000000000000000000E5
:103BE00000000000000000000000000000000000D5
:103BF00000000000000000000000000000000000C5
:103C000000000000000000000000000000000000B4
:103C100000000000000018003C003C0018000000FC
:103C20000000000000000000000000000000004054
:103C3000006000200030001000180008000C000494
:103C4000000600020003000180018000C000400067
:103C50006000200030001000180008000C00040074
:103C6000060002000000000000000000000000004C
:103C700000000000C007600C301818301830182001
:103C80000C600C600C600C600C600C600C600C60D4
:103C90000C601820183018303018600CC007000075
:103CA0000000000000000000000000000000000014
:103CB0000000000000018001F80180018001800106
:103CC00080018001800180018001800180018001EC
:103CD00080018001800180018001C003F81F000085
:103CE00000000000000000000000000000000000D4
:103CF00000000000E007101C0818043004300C30ED
:103D00000C300030001800080004000200018000A0
:103D100040002020102008200430FC1FFC1F000061
:103D20000000000000000000000000000000000093
:103D300000000000E003180E0C0C0C180C180C18F6
:103D40000018000C0006C003000E00180010003020
:103D500000300C300C300C100C18180CE003000074
:103D60000000000000000000000000000000000053
:103D700000000000000C000E000E000F800E800EF0
:103D8000400E600E200E100E100E080E040E040ED3
:103D9000FE7F000E000E000E000E000E000EC07F13
:103DA0000000000000000000000000000000000013
:103DB00000000000F03FF03F10001000100008006D
:103DC0000800C807280C1818081000300030003010
:103DD00000300C300C3004180418080CF0030000FC
:103DE00000000000000000000000000000000000D3
:103DF00000000000800FC0102030103018001800A4
:103E000008000C008C0F6C183C301C600C600C60BF
:103E10000C600C601860182030306018C00700007B
:103E20000000000000000000000000000000000092
:103E300000000000F83FF83F1C100C0804080404C0
:103E40000004000200020001000100018000800067
:103E50008000C000C000C000C000C000C000000062
:103E60000000000000000000000000000000000052
:103E700000000000E007300C18180C300C300C303B
:103E80001C3038187008E007B007180E0C1C0638F4
:103E900006300630063006300C18180CE00300001F
:103EA0000000000000000000000000000000000012
:103EB00000000000E00318040C080C18061006307F
:103EC00006300630063006380C3C1836F03100302B
:103ED0000018001800180C0C0C060C03F001000070
:103EE00000000000000000000000000000000000D2
:103EF00000000000000000000000000000000000C2
:103F000000008001C003C003800100000000000029
:103F10000000000000008001C003C0038001000019
:103F20000000000000000000000000000000000091
:103F30000000000000000000000000000000000081
:103F40000000C000C00000000000000000000000F1
:103F500000000000000000000000C000C000800061
:103F60008000400040000000000000000000000051
:103F7000000000200010000800040006000380017B
:103F8000C0006000300018000C0018003000600015
:103F9000C00080010003000600040008001000209B
:103FA0000000000000000000000000000000000011
:103FB0000000000000000000000000000000000001
:103FC0000000FE7F00000000000000000000FE7FF7
:103FD00000000000000000000000000000000000E1
:103FE00000000000000000000000000000000000D1
:103FF000000004000800100020006000C0008001E4
:1040000000030006000C001800300018000C000629
:1040100000038001C00060002000100008000400C0
:104020000000000000000000000000000000000090
:104030000000C0073018083008600C601C601C606D
:104040001C600030001C0006000180008000800021
:104050008000000000008001C003C0038001000058
:104060000000000000000000000000000000000050
:1040700000000000C0076018103018200C2F8C4D75
:10408000864CC64CC64C664C66446644662666261C
:104090006615CC1C0C40082018303018C0070000F2
:1040A0000000000000000000000000000000000010
:1040B00000000001C001C001C001400160032003F5
:1040C000200320033006100610061006F80F080C17
:1040D000080C080C0C0C0418041806181F7C0000AF
:1040E00000000000000000000000000000000000D0
:1040F00000000000FE07181C18381830183018305F
:1041000018301818180CF8071818183018201860EC
:10411000186018601860186018301818FE0F00003A
:10412000000000000000000000000000000000008F
:1041300000000000C0276038103018200C400C40F0
:104140000400060006000600060006000600060041
:1041500006000C400C400C2018303018C00700003E
:10416000000000000000000000000000000000004F
:1041700000000000FE03180E181818301830183010
:10418000186018601860186018601860186018606F
:1041900018601830183018101818180EFE03000098
:1041A000000000000000000000000000000000000F
:1041B00000000000FE3F183018201860184018005A
:1041C00018081808180CF80F180C18081808180008
:1041D000180018001840184018201830FE3F000042
:1041E00000000000000000000000000000000000CF
:1041F00000000000FE7F1870184018C018801800DA
:10420000181018101818F81F18181810181018007F
:104210001800180018001800180018007E00000090
:10422000000000000000000000000000000000008E
:1042300000000000C013701C101018100C200C207F
:1042400004000600060006000600060006FC063014
:1042500006300C300C30183018303008C007000021
:10426000000000000000000000000000000000004E
:10427000000000003F7E0C180C180C180C180C18CD
:104280000C180C180C180C18FC1F0C180C180C1817
:104290000C180C180C180C180C180C183F7E000089
:1042A000000000000000000000000000000000000E
:1042B00000000000F81F8001800180018001800162
:1042C00080018001800180018001800180018001E6
:1042D000800180018001800180018001F81F0000C1
:1042E00000000000000000000000000000000000CE
:1042F00000000000E07F0006000600060006000641
:10430000000600060006000600060006000600067D
:10431000000600060006000600060006000600066D
:104320000E060E038E01FC000000000000000000DD
:10433000000000007E7C18181808180418061802DF
:10434000180198019801D801B80338031807180616
:10435000180E180C181C1818183018307EFC0000A5
:10436000000000000000000000000000000000004D
:10437000000000007E001800180018001800180047
:10438000180018001800180018001800180018006D
:10439000180018001840184018201830FE3F000080
:1043A000000000000000000000000000000000000D
:1043B000000000001FF81C381C381C381C3C34342A
:1043C00034343434343674326432643264326431B6
:1043D000C431C431C431C430C43084309FFC0000C7
:1043E00000000000000000000000000000000000CD
:1043F000000000001F7C1C103C103410341074109E
:104400006410E410C410C41184118413041304173D
:104410000416041E041C041C041C04181F180000AD
:10442000000000000000000000000000000000008C
:1044300000000000C003300C181808100C300C30BD
:10444000066006600660066006600660066006603C
:1044500006600C200C3008101818300CC003000047
:10446000000000000000000000000000000000004C
:1044700000000000FE0F181818301860186018604F
:104480001860186018301818F80F18001800180075
:104490001800180018001800180018007E0000000E
:1044A000000000000000000000000000000000000C
:1044B00000000000C003300C18180C100C300C2049
:1044C00006600660066006600660066006600660BC
:1044D0000660E4612C331C321816300EC007004C05
:1044E000007C003800000000000000000000000018
:1044F00000000000FE07181C18381830183018305B
:1045000018301818180CF80798031803180718061D
:104510001806180E180C180C181C18187E780000B5
:10452000000000000000000000000000000000008B
:1045300000000000E027303818300C200C200C0060
:104540000C0018007800E003800F001E0038007097
:10455000006004600460086018303818C80F00005C
:10456000000000000000000000000000000000004B
:1045700000000000FC3F8C21846182418241800167
:104580008001800180018001800180018001800123
:10459000800180018001800180018001E00700002E
:1045A000000000000000000000000000000000000B
:1045B000000000003F7C0C100C100C100C100C10B4
:1045C0000C100C100C100C100C100C100C100C100B
:1045D0000C100C100C100C1008083804E00300003C
:1045E00000000000000000000000000000000000CB
:1045F000000000003EF8182018201820301030105D
:1046000030103010600860086008E00CC004C0047E
:10461000C0048003800380038003000100010000C8
:10462000000000000000000000000000000000008A
:1046300000000000DFF38661862186218C210C2199
:104640008C238C138C138C134C1358125816580E41
:10465000380E380E380E300C100410041004000010
:10466000000000000000000000000000000000004A
:10467000000000007E3E1808380830043004700244
:104680006002E001C001C0018001800340034007D7
:1046900020062006100C100C081808183E7C00009C
:1046A000000000000000000000000000000000000A
:1046B000000000007E7C1C10181018083008300C18
:1046C000700460046002C002C002C0018001800169
:1046D000800180018001800180018001E0070000ED
:1046E00000000000000000000000000000000000CA
:1046F00000000000F83F18180818040C040E00060B
:104700000007000380038001C001C000E0006000DA
:1047100070003000382018201C100C18FE1F0000FC
:104720000000000000000000000000000000C03F8A
:104730004000400040004000400040004000400079
:104740004000400040004000400040004000400069
:104750004000400040004000400040004000400059
:104760004000C03F0000000000000000000000000A
:104770000000080018001800100030002000600041
:1047800060004000C0008000800180010001000343
:104790000002000600060004000C000800180018C3
:1047A0000010003000200000000000000000FC03AA
:1047B00000020002000200020002000200020002E9
:1047C00000020002000200020002000200020002D9
:1047D00000020002000200020002000200020002C9
:1047E0000002FC0300000000000000000000800741
:1047F000C0062008101000000000000000000000AB
:1048000000000000000000000000000000000000A8
:104810000000000000000000000000000000000098
:104820000000000000000000000000000000000088
:104830000000000000000000000000000000000078
:104840000000000000000000000000000000000068
:104850000000000000000000000000000000000058
:10486000000000000000FFFF0000000000007800D2
:10487000C000000100000000000000000000000077
:104880000000000000000000000000000000000028
:104890000000000000000000000000000000000018
:1048A0000000000000000000000000000000000008
:1048B00000000000000000000000000000000000F8
:1048C0000000F00318060C0C0C0C000C800F700C90
:1048D0001C0C0C0C060C060C064C0C4FF838000097
:1048E00000000000000000000000000000000000C8
:1048F000000010001E001800180018001800180012
:104900001800180FD8183830386018601860186010
:10491000186018601860182038307818C807000030
:104920000000000000000000000000000000000087
:104930000000000000000000000000000000000077
:104940000000C007700C181818180C180C000C0088
:104950000C000C000C20182018103008C0070000B4
:104960000000000000000000000000000000000047
:1049700000000010001E0018001800180018001891
:104980000018E01B301C181818180C180C180C18FC
:104990000C180C180C180818181C307AE0090000C4
:1049A0000000000000000000000000000000000007
:1049B00000000000000000000000000000000000F7
:1049C0000000C007300C181808100C300C30FC3FE9
:1049D0000C000C000C00182018107018C007000004
:1049E00000000000000000000000000000000000C7
:1049F00000000000003E80C380C0C0C0C000C000F6
:104A0000C000FC1FC000C000C000C000C000C0004B
:104A1000C000C000C000C000C000C000F80F00000F
:104A20000000000000000000000000000000000086
:104A30000000000000000000000000000000000076
:104A40000000C077306C10181818181818181018B3
:104A5000300CF00718001800F00FF03F08700C60E1
:104A60000C600C603838E00F00000000000000000F
:104A7000000010001E001800180018001800180090
:104A80001800980FD81838301830183018301830EF
:104A90001830183018301830183018307EFC0000EC
:104AA0000000000000000000000000000000000006
:104AB000000000008003800380030000000000006D
:104AC0000001F801800180018001800180018001E6
:104AD000800180018001800180018001F81F0000B9
:104AE00000000000000000000000000000000000C6
:104AF000000000000038003800380000000000000E
:104B00000010801F00180018001800180018001866
:104B100000180018001800180018001800180018D5
:104B20000018180C1806F003000000000000000038
:104B3000000010001E0018001800180018001800CF
:104B40001800183E180C1806180318019801D8010F
:104B5000380318071806180C181C18187E7C00005B
:104B60000000000000000000000000000000000045
:104B700000000001F80180018001800180018001B6
:104B8000800180018001800180018001800180011D
:104B9000800180018001800180018001F81F0000F8
:104BA0000000000000000000000000000000000005
:104BB00000000000000000000000000000000000F5
:104BC0000800EE1C9C338C318C318C318C318C3153
:104BD0008C318C318C318C318C318C31DE7B00000E
:104BE00000000000000000000000000000000000C5
:104BF00000000000000000000000000000000000B5
:104C000010001E0FD81838301830183018301830EF
:104C10001830183018301830183018307EFC00006A
:104C20000000000000000000000000000000000084
:104C30000000000000000000000000000000000074
:104C40000000C007701C103018300C600C600C6045
:104C50000C600C600C60183018303018C007000071
:104C60000000000000000000000000000000000044
:104C70000000000000000000000000000000000034
:104C800010009E0F581838301820186018601860EF
:104C900018601860186018303830781898071800B5
:104CA0001800180018007E0000000000000000003E
:104CB00000000000000000000000000000000000F4
:104CC0000000C023303C183818300C300C300C3049
:104CD0000C300C300C3008301838303CE0330030E9
:104CE00000300030003000FC000000000000000038
:104CF00000000000000000000000000000000000B4
:104D000060007E3C60666061E000E0006000600082
:104D1000600060006000600060006000FE0700004E
:104D20000000000000000000000000000000000083
:104D30000000000000000000000000000000000073
:104D40000000E02730381830182018007000E00309
:104D5000800F001C043004300C301C18EC0F0000D5
:104D60000000000000000000000000000000000043
:104D70000000000000000000800080008000C000F3
:104D8000E000FC1FC000C000C000C000C000C000A8
:104D9000C000C000C000C020C0208011000F000073
:104DA0000000000000000000000000000000000003
:104DB00000000000000000000000000000000000F3
:104DC00010201E3C183018301830183018301830A9
:104DD0001830183018301830183830F4E01300004C
:104DE00000000000000000000000000000000000C3
:104DF00000000000000000000000000000000000B3
:104E000000007E3C1818180838083004300470027E
:104E100060026002E001C001C001C000800000002B
:104E20000000000000000000000000000000000082
:104E30000000000000000000000000000000000072
:104E40000000DFF78E630C238C238C2398139813B8
:104E500058165816700E700E700E200420040000B4
:104E60000000000000000000000000000000000042
:104E70000000000000000000000000000000000032
:104E80000000FC3E70087004E004C002C001800312
:104E9000800340076006200C100C18183E7E0000AE
:104EA0000000000000000000000000000000000002
:104EB00000000000000000000000000000000000F2
:104EC00000007E7C18181808300830083004600490
:104ED0006004C002C002C002800180018001800025
:104EE000800080004C003C0000000000000000003A
:104EF00000000000000000000000000000000000B2
:104F00000000FC1F0C0C040E04060003800380014B
:104F1000C000E0007020302038301C18FC1F00005A
:104F20000000000000000000000000000000003051
:104F3000000800040004000400040004000400044D
:104F400000040004000400028001000200040004C8
:104F50000004000400040004000400040004000431
:104F60000004000800300000000100010001000101
:104F70000001000100010001000100010001000129
:104F80000001000100010001000100010001000119
:104F90000001000100010001000100010001000109
:104FA00000010001000100010000000000000C00F1
:104FB0001000200020002000200020002000200001
:104FC0002000200020004000800140002000200040
:104FD00020002000200020002000200020002000D1
:104FE000200010000C00000000003800C4008640C3
:104FF00002610022001C0000000000000000000010
:1050000000000000000000000000000000000000A0
:105010000000000000000000000000000000000090
:105020000000000000000000000000000000000080
:105030000000000000000000000000000000000070
:105040000000000000000000000000000000000060
:105050000000000000000000000000000000000050
:10506000E000E000E000E000E00040004000400020
:10507000400040004000000000000000E000E000B0
:10508000E000000000000000000000006006600674
:105090003003980188004400000000000000000078
:1050A0000000000000000000000000000000000000
:1050B00000000000000000000000000000000000F0
:1050C00000000802080208020802FE07FE070802A4
:1050D000080204010401FE07FE07040104010401A3
:1050E000040100000000000000000000000040007B
:1050F0004000F00158034C034C034C005800700072
:10510000E000C001C00140034C034C034C034801C4
:10511000F00040004000000000000000000000001F
:1051200000000E030A01110191009100D10051000D
:10513000FA03AE0260045004500458044804880284
:1051400084030000000000000000000000000000D8
:10515000000038006400640064006400A4031C01C3
:105160000C011A019200B300E3006300C300A6041F
:105170001C03000000000000000000000C001C00E8
:1051800010001000080006000000000000000000F1
:10519000000000000000000000000000000000000F
:1051A00000000000000000000000000000040002F9
:1051B000000180018000C000C0006000600060004D
:1051C0006000600060006000C000C00080008001DE
:1051D00000010002000400000000000002000400C2
:1051E000080018001000300030006000600060000F
:1051F00060006000600060003000300010001800A7
:105200000800040002000000000000000000000090
:10521000000000004000400040004E0E5C07F0011E
:10522000F0015C074E0E400040004000000000000E
:10523000000000000000000000000000000000006E
:10524000000000000000400040004000400040001E
:10525000FE0F400040004000400040000000000001
:10526000000000000000000000000000000000003E
:10527000000000000000000000000000000000002E
:105280000000000000000000000000000C001C00F6
:1052900010001000080006000000000000000000E0
:1052A00000000000000000000000000000000000FE
:1052B000FE070000000000000000000000000000E9
:1052C00000000000000000000000000000000000DE
:1052D00000000000000000000000000000000000CE
:1052E0000000000000000000000000001C001C0086
:1052F0001C00000000000000000000000004000688
:105300000002000300010001800080004000400016
:1053100060002000200010001000080008000C00B1
:105320000400060002000000000000000000000071
:105330000000F00098010C030C03060606060606A2
:10534000060606060606060606060C030C0398016A
:10535000F00000000000000000000000000000005D
:105360000000400060007C006000600060006000A1
:10537000600060006000600060006000600060002D
:10538000FC0300000000000000000000000000001E
:105390000000F800840102030603060300038001F5
:1053A0008001C00020001000080204020202FE0377
:1053B000FE030000000000000000000000000000EC
:1053C00000007800C4008601860186018001C000CB
:1053D0007000800100010003060306030603840138
:1053E000F8000000000000000000000000000000C5
:1053F00000018001C001C001A0019001900188015D
:10540000840184018201FE07800180018001800106
:10541000E0070000000000000000000000000000A5
:105420000000FC03FC030400040004000400F4007A
:105430008C010403000300030603060382018401B8
:10544000F800000000000000000000000000000064
:105450000000E00118030C030C0004000600E60144
:1054600016030E0606060606060604060C021803B8
:10547000F00000000000000000000000000000003C
:105480000000F807FC070C02040104010001800081
:10549000800040004000400060006000600060004C
:1054A000600000000000000000000000000000009C
:1054B0000000F8010C030606060606060E023C0371
:1054C000F000CC01040306060606060606060C03D9
:1054D000F0010000000000000000000000000000DB
:1054E0000000F0000C010C03060206060606060684
:1054F00006078C0678060006000300030C018C01E9
:105500007800000000000000000000000000000023
:1055100000000000000000000000E000E000E000EB
:10552000000000000000000000000000E000E000BB
:10553000E00000000000000000000000000000008B
:10554000000000000000000000000000600060009B
:1055500000000000000000000000000000006000EB
:10556000600040002000000000000000000000007B
:10557000000400020001800040002000100008002C
:10558000040008001000200040008000000100021C
:105590000004000000000000000000000000000007
:1055A000000000000000000000000000FE070000F6
:1055B000000000000000FE070000000000000000E6
:1055C00000000000000000000000000000000000DB
:1055D00004000800100020004000800000010002CC
:1055E00000040002000180004000200010000800BC
:1055F00004000000000000000000000000000000A7
:10560000F0010C03020602060606060600038001EE
:1056100060002000200020000000000070007000EA
:10562000700000000000000000000000000000000A
:105630000000E00138060804CC0A640B260926099C
:10564000160916099609960566030C080C0418023B
:10565000E001000000000000000000000000000069
:105660000000600060007000D000D000C800880119
:1056700088018801F80104030403040304060606F4
:105680000F0F0000000000000000000000000000FC
:105690000000FF00860106030603060306038601D9
:1056A000FE000603060206060606060606060603B2
:1056B000FF010000000000000000000000000000EA
:1056C0000000E00718060C040C04040006000600A5
:1056D000060006000600060006040C040C02180171
:1056E000F0000000000000000000000000000000CA
:1056F00000007F008601060306030606060606066E
:105700000606060606060606060606030603C60184
:105710007F0000000000000000000000000000000A
:105720000000FF030602060406000600860086004D
:10573000FE00860086000600060006040604060237
:10574000FF03000000000000000000000000000057
:105750000000FF0306030604060406008600860018
:10576000FE00860086000600060006000600060011
:105770000F0000000000000000000000000000001A
:105780000000F00218030C020C02040006000600E0
:1057900006000600C60F060306030C030C031803DD
:1057A000F000000000000000000000000000000009
:1057B00000000F0F06060606060606060606060683
:1057C000FE07060606060606060606060606060680
:1057D0000F0F0000000000000000000000000000AB
:1057E0000000FC036000600060006000600060007A
:1057F00060006000600060006000600060006000A9
:10580000FC03000000000000000000000000000099
:105810000000F00F80018001800180018001800183
:105820008001800180018001800180018001800170
:1058300080018601C6007C0000000000000000001E
:105840000000CF070601860046004600260036000D
:105850003E006E00E600C600C6018601060306078C
:105860008F0F00000000000000000000000000009A
:1058700000000F00060006000600060006000600F5
:1058800006000600060006000600060406040602DE
:10589000FF03000000000000000000000000000006
:1058A00000000F0F0E070E070E079A069A069A06BB
:1058B0009A065A06720672067206720622062206B8
:1058C000270F0000000000000000000000000000A2
:1058D0000000070E0E040E041A041A0432046204B7
:1058E0006204C204C204820502070207020602061D
:1058F000070400000000000000000000000000009D
:105900000000F00098010C030C02060606060606CD
:10591000060606060606060606060C020C03980195
:10592000F000000000000000000000000000000087
:105930000000FF0106030606060606060606060622
:105940000603FE010600060006000600060006002B
:105950000F00000000000000000000000000000038
:105960000000F00098010C030C020606060606066D
:10597000060606060606060676064C028C03880115
:10598000F00180070003000000000000000000009C
:105990000000FF01060306060606060606060603C5
:1059A000FE006600C600C6008601860106030603E7
:1059B0000F0E0000000000000000000000000000CA
:1059C0000000F8040C070604060406000E003C0064
:1059D000F000C003000300060206020606060E03DE
:1059E000F2010000000000000000000000000000C4
:1059F0000000FE076204610861086000600060004A
:105A00006000600060006000600060006000600096
:105A1000F000000000000000000000000000000096
:105A200000000F0E0604060406040604060406041D
:105A300006040604060406040604060406040C0212
:105A4000F80100000000000000000000000000005D
:105A500000001F0F0E060C020C020C020C011801B4
:105A6000180118011801B000B000B000F00060008B
:105A700060000000000000000000000000000000C6
:105A80000000EF0E6604660466026602E602EC029F
:105A9000EC02DC01DC01DC01DC019C0188008800F7
:105AA000880000000000000000000000000000006E
:105AB00000009E070C03180118019800B000700048
:105AC00060006000E000D000D001980188010C0364
:105AD0009E07000000000000000000000000000021
